:020000040800F2
:1000000000800120BD0C00080D0D00080D0D00083A
:100010000D0D00080D0D00080D0D0008000000007A
:100020000000000000000000000000000D0D0008AE
:100030000D0D0008000000000D0D00080D0D00085A
:10004000000000000D0D00080D0D00080D0D00084A
:100050000D0D00080D0D00080D0D00080D0D000818
:100060000D0D000889060008B9070008000000000F
:100070000000000000000000000000000000000080
:1000800000000000000000000D0D0008000000004E
:10009000000000000000000000000000390500081A
:1000A0000D0D00080D0D00080D0D00080D0D0008C8
:1000B0000D0D00080D0D00080D0D00080D0D0008B8
:1000C0000D0D00080D0D00080D0D00080D0D0008A8
:1000D0000D0D00080D0D00080D0D000800000000BA
:1000E000D10800080D0D00080D0D000800000000EB
:1000F0000000000000000000000000000000000000
:10010000000000000D0D00080D0D00080D0D000889
:1001100000000000000000000000000000000000DF
:1001200000000000000000000000000000000000CF
:1001300000000000000000000000000000000000BF
:100140000000000000000000000000000D0D00088D
:100150000000000000000000000000000D0D00087D
:100160000D0D00080D0D000800000000000000004B
:10017000000000000000000000000000000000007F
:10018000000000000D0D000800000000000000004D
:040190000D0D000849
:1001A00010B5054C237833B9044B13B10448AFF3B1
:1001B00000800123237010BD6400002000000000B7
:1001C0004016000808B5034B1BB103490348AFF3C1
:1001D000008008BD000000006800002040160008F4
:1001E00001F0FF01102A2BDB10F0070F08D010F8E8
:1001F000013B013A8B422DD010F0070F42B3F6D1EC
:10020000F0B441EA012141EA014122F007047FF004
:1002100000070023F0E80256083C85EA010586EA5B
:10022000010685FA47F5A3FA87F586FA47F6A5FA97
:1002300087F68EB9EED1F0BC01F0FF0102F00702A3
:1002400032B110F8013B013A83EA010313B1F8D14E
:100250000020704701387047002D06BF354603382F
:10026000073815F0010F07D1013015F4807F02BF68
:10027000013015F4C03F0130F0BC0138704700BFB9
:1002800080B483B000AF0346FB7197F90730002BB1
:100290000BDBFB7903F01F02074997F907305B0975
:1002A000012000FA02F241F8232000BF0C37BD46BE
:1002B0005DF8047B704700BF00E100E080B400AF50
:1002C000304B07221A63304B1B682F4A23F400532C
:1002D00013602D4B1B682C4A43F4805313602A4B48
:1002E0001B68294A23F400231360274B1B68264A06
:1002F00043F480231360254B1B68244A23F02843D2
:100300001360224B1B68214A43F0A84313601F4B24
:100310001B681E4A23F4434323F0C00313601B4BA6
:10032000DB681A4A43F4824343F04003D360174B1F
:10033000DB68164A23F4024323F08003D360144B96
:100340001B68134A23F040431360114BDB68104ACB
:1003500043F08043D3600E4BDB680D4A23F000432B
:10036000D3600A4B5B69094A43F460435361064B0F
:100370005B69054A43F04003536100BFBD465DF829
:10038000047B70470038024000080240000402402D
:100390000000024080B400AF2E4B1B6B2D4A43F08F
:1003A000020313632C4B1B682B4A43F0006313605A
:1003B000294B1B68284A23F080631360264B5B6A35
:1003C000254A43F480135362224B5B6C214A43F06D
:1003D00001035364214B00229A62204B40F2E73222
:1003E000DA621E4B9B691D4A43F0080393611B4B65
:1003F0009B691A4A43F060039361184B9B69174A43
:1004000023F010039361154B1B6A144A43F0010358
:100410001362124B9B69114A43F0040393610F4B23
:100420001B6A0E4A43F0040313620C4B5B6C0B4ACD
:1004300043F400435364094B00225A62074B1B6884
:10044000064A43F00103136000BFBD465DF8047B1C
:10045000704700BF00380240000402400000014025
:1004600080B483B000AF786039600C4A7B68B2FB1F
:10047000F3F30B4A013BD362094BDB6A01333A6861
:1004800002FB03F3064A0749A1FB03135B0953630D
:1004900000BF0C37BD465DF8047B70470024F400B4
:1004A000000001401F85EB5180B400AF0B4B1B6C6B
:1004B0000A4A43F002031364094B43F67F629A62CF
:1004C000074B00225A62064B1B68054A43F00103A2
:1004D000136000BFBD465DF8047B704700380240E2
:1004E0000004004080B500AF72B600BF0F4B5B6CDC
:1004F0000E4A43F4804353640D4BDB680C4A43F4CB
:100500008053D3600B4B1B680A4A43F0800313608F
:10051000084BDB68074A43F08003D3601720FFF7DE
:10052000AFFE62B600BF00BF80BD00BF0038024012
:1005300000380140003C014080B400AF0B4B5B69C8
:10054000DB0903F00103002B04D0094B1B680133C6
:10055000074A1360054B5B69044A43F0800353610B
:1005600000BFBD465DF8047B704700BF003C014002
:100570008400002080B500AF244B1B68012B09D1FB
:10058000234B01221A70234B5B69224A23F040035C
:10059000536138E01D4B1B68022B34D11C4B0022E9
:1005A0001A701A4B00221A601B4B00221A601B4B58
:1005B00000221A601A4B00221A601A4B00221A609D
:1005C000194B00221A60194B00221A60114B5B690B
:1005D000104A43F040035361002142F21070FFF7CC
:1005E0003FFF134B5B69124A43F480435361104B46
:1005F0005B690F4A43F400435361064B5B69054A4C
:1006000023F40073536100BF80BD00BF840000204D
:100610008000002000080240880000208C0000209C
:100620009000002094000020980000209C000020F2
:100630000004024080B500AF72B600BF0F4B5B6C88
:100640000E4A43F4804353640D4B9B680C4A43F4B9
:10065000805393600B4B1B680A4A43F008031360F6
:10066000084BDB68074A43F00803D3600920FFF713
:1006700007FE62B600BF00BF80BD00BF0038024069
:1006800000380140003C014080B400AF0D4B5B6975
:10069000DB0803F00103002B08D00B4B1B78012B68
:1006A00004D10A4B1B680133084A1360054B5B6990
:1006B000044A43F00803536100BFBD465DF8047B64
:1006C000704700BF003C01408000002088000020EF
:1006D00080B500AF1F4B1B68012B05D10A2142F2E8
:1006E0001070FFF7BDFE32E01A4B1B68022B05D1DC
:1006F0005A2142F21070FFF7B3FE28E0154B1B6839
:10070000032B03D1144B01221A6020E0114B1B680C
:10071000042B1CD1002142F21070FFF7A1FE0F4BF9
:100720005B690E4A43F4804353610C4B5B690B4A8F
:1007300043F4004353610A4B5B69094A23F4007395
:100740005361044B00221A60034B00221A6000BF61
:1007500080BD00BF880000209C00002000040240F3
:100760000008024080B500AF72B600BF0F4B5B6C53
:100770000E4A43F4804353640D4BDB680C4A43F04C
:100780000103D3600B4B1B680A4A43F0100313604C
:10079000084BDB68074A43F01003D3600A20FFF7D9
:1007A0006FFD62B600BF00BF80BD00BF00380240D1
:1007B00000380140003C014080B400AF114B5B6940
:1007C0001B0903F00103002B10D00F4B1B78012BEA
:1007D0000CD10E4B1B68012B08D00D4B1B68012B55
:1007E00004D00C4B1B6801330A4A1360054B5B694C
:1007F000044A43F01003536100BFBD465DF8047B1B
:10080000704700BF003C0140800000209C00002099
:10081000980000208C00002080B400AF144B1B68AF
:10082000012B09D1134B01221A60134B5B69124A49
:1008300043F40043536115E00D4B1B68022B11D1AB
:100840000D4B5B690C4A43F4804353610B4B5B696E
:100850000A4A23F400735361054B00221A60054BCA
:1008600000221A6000BFBD465DF8047B704700BFE0
:100870008C00002094000020000402400008024088
:1008800080B500AF72B600BF0E4B5B6C0D4A43F4EF
:10089000804353640C4B0C4A5B6953610B4B1B68E0
:1008A0000A4A43F400431360084BDB68074A43F4E9
:1008B0000043D3602820FFF7E3FC62B600BF00BF0F
:1008C00080BD00BF0038024000380140003C0140BC
:1008D00080B400AF114B5B69DB0B03F00103002B0D
:1008E00010D00F4B1B78012B0CD10E4B1B68012B2A
:1008F00008D00D4B1B68012B04D00C4B1B68013337
:100900000A4A1360054B5B69044A43F40043536190
:1009100000BFBD465DF8047B704700BF003C01404E
:10092000800000209C000020940000209000002007
:1009300080B400AF144B1B68012B09D1134B01226B
:100940001A60134B5B69124A43F48043536115E00C
:100950000D4B1B68022B11D10D4B5B690C4A43F404
:10096000004353610B4B5B690A4A23F400735361E4
:10097000054B00221A60054B00221A6000BFBD46DD
:100980005DF8047B704700BF9000002098000020B5
:10099000000402400008024080B400AF1F4B5B6CB3
:1009A0001E4A43F0100353641D4B1B681C4A43F45A
:1009B000002313601A4B1B68194A23F48023136029
:1009C000174B1B68164A43F400131360144B1B6843
:1009D000134A23F480131360114B5B6A104A43F0EF
:1009E000700353620F4BDB680E4A43F00803D36079
:1009F0000C4BDB680B4A43F00403D360094B40F215
:100A000083629A60074BDB68064A43F40053D36065
:100A100000BFBD465DF8047B704700BF0038024050
:100A2000000002400010014080B483B000AF0346D4
:100A3000FB7100BF074B1B6803F08003002BF9D04C
:100A4000044AFB79536000BF0C37BD465DF8047B58
:100A5000704700BF0010014080B582B000AF7860E1
:100A600007E07B681B781846FFF7DEFF7B680133E1
:100A70007B607B681B78002BF3D100BF00BF083779
:100A8000BD4680BD80B400AF154B5B6C144A43F487
:100A900080735364134B1B68124A43F03003136096
:100AA000114BDB6A104A23F47003D3620E4B0C2205
:100AB0005A630D4B9B680C4A43F0020393600A4B48
:100AC0009B68094A43F001039360074B9B68064A01
:100AD00043F08043936000BFBD465DF8047B7047E0
:100AE00000380240000802400020014080B582B07A
:100AF00000AF00237B6000233B60FFF7DFFBFFF7C5
:100B000049FCFFF7EFFCFFF795FDFFF72BFEFFF722
:100B1000B7FEFFF741FFFFF7B5FFFFF7C5FCFFF793
:100B200029FDFFF7D5FDFFF777FEFFF701FF3B4BF0
:100B30001B78012B6AD13A4B9B68394A43F08043BA
:100B4000936000BF364B1B6803F00203002BF9D003
:100B5000334BDB6CC3F30B037B607B68642202FBCB
:100B600003F3002B01DA03F6FF731B133B6025230D
:100B70003A682C492C4800F0F5F82B48FFF76CFF39
:100B80002A49294800F0EEF82748FFF765FF284B6F
:100B90001B68032B19D1274B1B68012B15D0264B43
:100BA0001B68012B11D0254B5B69244A83F48043D9
:100BB0005361224B5B69214A83F400435361204B0C
:100BC0005B691F4A83F4007353611E4B1B68012B42
:100BD0000BD11A4B5B69194A83F480435361184B5C
:100BE0005B69174A83F400735361174B1B68012B31
:100BF00095D1124B5B69114A83F400435361104B4A
:100C00005B690F4A83F40073536188E70F49064814
:100C100000F0A8F80448FFF71FFF80E780000020DD
:100C20000020014058160008A000002068160008A7
:100C3000880000209400002098000020000402405A
:100C4000000802408C00002090000020741600086C
:100C500080B586B000AF7860144A154BD31A7B611B
:100C60007B693B61134B1B68002B02D1114B124A6D
:100C70001A60104B1A687B6813443A699A4207D28B
:100C800000F046F803460C221A604FF0FF3309E0EB
:100C9000084B1B68FB60074B1A687B681344054AC6
:100CA0001360FB6818461837BD4680BD00800120E0
:100CB00000040000C0000020D80000200D48854638
:100CC000AFF300800C480D490D4A002302E0D458D0
:100CD000C4500433C4188C42F9D30A4A0A4C002386
:100CE00001E013600432A242FBD300F017F8FFF7D3
:100CF000FDFEFEE7008001200000002064000020CF
:100D0000BC16000864000020D4000020FEE70000AC
:100D1000014B1868704700BF0000002070B50D4DF2
:100D20000D4C641BA4100026A64209D10B4D0C4C9F
:100D300000F086FC641BA4100026A64205D170BDFD
:100D400055F8043B98470136EEE755F8043B9847C1
:100D50000136F2E7B4160008B4160008B41600080D
:100D6000B81600080EB400B59CB01DAB02900690FA
:100D70006FF00041094807910491094953F8042B89
:100D800005910068019302A900F068F8029B002217
:100D90001A701CB05DF804EB03B07047000000202F
:100DA0000802FFFF2DE9F0478E689E4282460C46FE
:100DB00090461F4638D88A8912F4906F32D0256841
:100DC0000969A5EB0109656905EB450505EBD575D5
:100DD00001334B446D109D4238BF1D46530531D53C
:100DE000294600F063FB064650B90C23CAF80030D0
:100DF000A38943F04003A3814FF0FF30BDE8F087A3
:100E000021694A4600F0BEFAA38923F4906343F0B7
:100E10008003A381266165614E44A5EB0905266028
:100E2000A5603E46BE4200D93E4620683246414655
:100E300000F0B6FAA3689B1BA360236833442360C9
:100E40000020DBE72A4600F0A5FB06460028E1D19A
:100E50002169504600F0BEFAC7E700002DE9F04FC7
:100E600098468B891B069DB007460D4614460ED545
:100E70000B6963B9402100F019FB2860286120B993
:100E80000C233B604FF0FF30D1E040236B61002327
:100E9000099320238DF82930CDF80C803023DFF81A
:100EA000A8818DF82A304FF0010923469A4613F89D
:100EB000012B0AB1252AF9D1BAEB040B0BD05B4602
:100EC000224629463846FFF76DFF013000F0AA8020
:100ED000099A5A4409929AF80030002B00F0A28037
:100EE00000234FF0FF32CDE905230AF1010A0493F4
:100EF00007938DF853301A935446052214F8011BBA
:100F00005148FFF76DF9049AD8B9D00644BF2023A1
:100F10008DF85330110744BF2B238DF853309AF8C6
:100F200000302A2B15D0079A544600204FF00A0CA7
:100F3000214611F8013B303B092B4ED9B0B1079245
:100F400014E0A0EB080309FA03F313430493A24649
:100F5000D2E7039B191D1B680391002BBBBF5B42AB
:100F600042F0020207930793B8BF049223782E2B16
:100F70000CD163782A2B35D1039B1A1D1B68039271
:100F8000002BB8BF4FF0FF3302340593DFF8C8A041
:100F9000217803225046FFF723F940B14023A0EB0C
:100FA0000A0003FA00F0049B03430134049314F88D
:100FB000011B26488DF828100622FFF711F900289A
:100FC00038D0234B1BBB039B073323F007030833A5
:100FD0000393099B3344099367E70CFB02320C46E9
:100FE0000120A5E700230134059319464FF00A0CB0
:100FF000204610F8012B303A092A03D9002BC5D01E
:101000000591C3E70CFB012104460123F0E703AB84
:1010100000932A460F4B04A93846AFF30080421CC8
:101020000646D6D1AB895B063FF52CAF09981DB0BB
:10103000BDE8F08F03AB00932A46064B04A938465F
:1010400000F07AF8EBE700BF801600088A16000867
:1010500000000000A50D0008861600082DE9F047E5
:10106000164699468A680B69DDF820809342B8BF1E
:101070001346336091F8432007460C460AB101330A
:1010800033602368990642BF3368023333602568B2
:1010900015F0060506D104F1190AE36832689B1AB7
:1010A000AB4226DC94F84320131E226818BF0123AC
:1010B00092062BD404F1430249463846C04701301A
:1010C0001ED02368E568326803F00603042B08BFCE
:1010D000AD1AA36822690CBF25EAE5750025934285
:1010E000C4BF9B1AED1800261A34B5421AD100204D
:1010F00008E00123524649463846C047013003D133
:101100004FF0FF30BDE8F0870135C6E7E1185A1C03
:10111000302081F84300224494F8451082F84310AF
:101120000233C7E70123224649463846C04701300B
:10113000E6D00136D9E700002DE9FF470F7E0C9D70
:10114000782F914680460C469A4601F1430207D813
:10115000622F0AD8002F00F0D880582F00F0A3800B
:1011600004F1420584F842703AE0A7F16303152BBD
:10117000F6D801A151F823F0D1110008E5110008BB
:101180006111000861110008611100086111000877
:10119000E5110008611100086111000861110008E3
:1011A00061110008F112000815120008D31200089E
:1011B0006111000861110008131300086111000893
:1011C000151200086111000861110008DB12000807
:1011D0002B681A1D1B682A6004F1420584F842300E
:1011E0000123A3E020682968060601F104030AD55B
:1011F0000E682B60002E03DA2D23764284F84330EC
:101200005E480A2319E00E682B6010F0400F18BFEB
:1012100036B2EFE72B682068191D2960010601D559
:101220001E6802E04606FBD51E8854486F2F0CBF8F
:1012300008230A23002184F843106568A560002D67
:10124000A2BF216821F0040121600EB9002D4DD00C
:101250001546B6FBF3F103FB1167C75D05F8017D89
:101260003746BB420E46F4D9082B0BD12368DE0764
:1012700008D5236961689942DEBF302305F8013C37
:1012800005F1FF35521B2261CDF800A04B4603AAA1
:1012900021464046FFF7E2FE01304CD14FF0FF30CF
:1012A00004B0BDE8F087354881F8457029682368A7
:1012B00051F8046B29601D0614D5DF0744BF43F0C5
:1012C000200323601EB9236823F02003236010232A
:1012D000B0E7236843F0200323607823284884F88C
:1012E0004530E3E7590648BFB6B2E6E71546BBE727
:1012F0002B6826686169181D286035061B6801D5B2
:10130000196002E07006FBD51980002323611546A1
:10131000BAE72B681A1D2A601D68626800212846FA
:10132000FEF75EFF08B1401B606063682361002325
:1013300084F84330A8E723692A4649464046D04707
:101340000130ABD023689B0713D4E068039B98421D
:10135000B8BF1846A4E70123324649464046D04765
:1013600001309BD00135E36803995B1AAB42F2DC94
:10137000EBE7002504F11906F5E700BF9116000818
:10138000A21600080A44914200F1FF3300D17047D1
:1013900010B511F8014B03F8014F9142F9D110BD7E
:1013A000884210B501EB020402D98442234607D8D3
:1013B000431EA14208D011F8012B03F8012FF8E7D2
:1013C000024401468A4200D110BD13F8014D02F8D3
:1013D000014DF7E737B5002944D051F8043C01909E
:1013E000002BA1F10404B8BFE41800F013F91E4A61
:1013F0000198136833B96360146003B0BDE83040EE
:1014000000F00EB9A34208D9256861198B4201BFCB
:1014100019685B6849192160EDE71A465B680BB1F2
:10142000A342FAD911685518A5420BD1246821446A
:101430005418A3421160E0D11C685B6853602144DA
:101440001160DAE702D90C230360D6E72568611939
:101450008B4204BF19685B68636004BF491921604F
:101460005460CAE703B030BDC400002070B50E4E12
:101470000C463168054611B900F0BCF830602146D1
:10148000284600F0B7F8431C0AD0C41C24F003041B
:10149000A04207D0211A284600F0ACF8013001D153
:1014A0004FF0FF34204670BDC80000202DE9F04108
:1014B000CD1C25F0030508350C2D38BF0C25002D5B
:1014C000074601DBA94205D90C233B6000263046C4
:1014D000BDE8F0812E4E00F09DF833681C4634BB09
:1014E00029463846FFF7C2FF431C04464DD13468F5
:1014F0002646002E40D123683146384604EB0308C7
:1015000000F078F880453AD1216803356D1A25F04E
:10151000030508350C2D38BF0C2529463846FFF742
:10152000A5FF01302BD023682B4423600EE02268F6
:10153000521B1ED40B2A16D96119A342256018BF6D
:101540005960636808BF316062514B60384604F1EE
:101550000B0600F065F826F00706231DF21AB6D038
:101560009B1BA350B3E76268A3420CBF32605A6072
:10157000ECE723466468B2E734467668B9E70C23A3
:101580003B60384600F04CF8A1E72560DEE700BF7D
:10159000C40000202DE9F041804614460E4621B9D2
:1015A000BDE8F0411146FFF781BF2AB9FFF712FFEE
:1015B00025462846BDE8F08100F038F88442074609
:1015C00002D8B4EB500F12D821464046FFF76EFF09
:1015D00005460028EDD0BC422246314628BF3A4697
:1015E000FFF7D0FE31464046FFF7F4FEE1E735460F
:1015F000DFE7000038B5064D0023044608462B609F
:10160000FFF726FB431C02D12B6803B1236038BDD2
:10161000CC000020014800F011B800BFD00000202D
:10162000014800F00CB800BFD000002051F8043C85
:10163000181F002BBCBF0B58C0187047704770476D
:10164000F8B500BFF8BC08BC9E467047F8B500BFAF
:08165000F8BC08BC9E4670477F
:101658004675656C3A2025642025630D0A00000054
:101668000A4F4E2053595354454D0D004F464620BE
:1016780053595354454D0D00232D302B2000686CD1
:101688004C0065666745464700303132333435369D
:1016980037383941424344454600303132333435D6
:0C16A80036373839616263646566000003
:0416B400C501000864
:0416B800A101000884
:1016BC0004000020000000000000000000000000FA
:1016CC00000000000000000000000000000000000E
:1016DC0000000000000000000000000000000000FE
:1016EC0000000000000000000000000000000000EE
:1016FC0000000000000000000000000000000000DE
:10170C0000000000000000000000000000000000CD
:04171C0000000000C9
:0400000508000CBD26
:00000001FF
